:020000040800F2
:1000000000400020651500080D15000817150008B0
:1000100000000000000000000000000000000000E0
:100020000000000000000000000000001D15000896
:10003000000000000000000027150008311500082E
:10004000B5150008B5150008B5150008B515000868
:10005000B5150008B5150008B5150008B515000858
:10006000B5150008B5150008B5150008B515000848
:10007000B5150008B5150008B5150008B515000838
:10008000B5150008B5150008B5150008B515000828
:10009000B5150008B5150008B5150008B515000818
:1000A000B5150008B5150008B5150008B515000808
:1000B000B5150008B5150008B5150008411500086C
:1000C00010B5064C2378002B07D1054B002B02D02E
:1000D000044800E000BF0123237010BDD0000020C1
:1000E0000000000054940008044B10B5002B03D00E
:1000F0000349044800E000BF10BDC04600000000F6
:10010000D4000020549400080023C25C0133002A6C
:10011000FBD1581E70470000002243088B4274D365
:1001200003098B425FD3030A8B4244D3030B8B42F8
:1001300028D3030C8B420DD3FF22090212BA030C01
:100140008B4202D31212090265D0030B8B4219D3E2
:1001500000E0090AC30B8B4201D3CB03C01A524102
:10016000830B8B4201D38B03C01A5241430B8B424A
:1001700001D34B03C01A5241030B8B4201D30B0333
:10018000C01A5241C30A8B4201D3CB02C01A52415A
:10019000830A8B4201D38B02C01A5241430A8B421D
:1001A00001D34B02C01A5241030A8B4201D30B0206
:1001B000C01A5241CDD2C3098B4201D3CB01C01A20
:1001C000524183098B4201D38B01C01A524143092A
:1001D0008B4201D34B01C01A524103098B4201D318
:1001E0000B01C01A5241C3088B4201D3CB00C01A85
:1001F000524183088B4201D38B00C01A52414308FD
:100200008B4201D34B00C01A5241411A00D2014621
:10021000524110467047FFE701B5002000F006F894
:1002200002BDC0460029F7D076E770477047C04648
:10023000F0B5ABB000AF39601100FB1D021C1A70A5
:10024000BB1D0A1C1A70FB1D1B78304A9446634480
:10025000DB02A0243A19136020257B198022FF219C
:10026000180009F0D6F8BB1D1A7839687B191800F8
:1002700009F0C6F801F09AFB0C217B1800221A60E5
:100280007B183A1912685A607B1801229A60002381
:10029000BB600823FA187B181100180001F046FC17
:1002A000A723FB1800221A7024E0A7257B191B78CE
:1002B0009B011A00A026BB191B689B18BA19136072
:1002C0007B191B78DB002022BA18D1181823FB18E1
:1002D0000822180009F094F8BB69FC69BA19116882
:1002E0001A002300032001F0CBFA7B191A787B193E
:1002F00001321A70A723FB181B780F2BD5D901F0F8
:100300007BFB00231800BD462BB0F0BD1A00010096
:1003100090B5A7B000AF786008001100FB1C021C6C
:100320001A70BB1C0A1C1A70FB1C1B78234A9446CB
:100330006344DB029022BA1813601023FB1880225A
:10034000FF21180009F065F89723FB1800221A70A6
:1003500021E097217B181B789B001A0090203B1806
:100360001B689B183A1813603B181B681B68FB60DE
:100370000C007B181B789B001022BA18D3180C2293
:10038000B9180422180009F03BF821007B181A78EC
:100390007B1801321A709723FB181B781F2BD8D9B2
:1003A000BB1C1A781023F9187B68180009F028F88C
:1003B00000231800BD4627B090BDC0461A000100BA
:1003C00090B589B000AF78600A00BB1C1A800C247D
:1003D0003B19180014231A00002109F01AF8BB1C5D
:1003E0001A8821007B181A607B1801225A607B183A
:1003F00000229A607B180322DA607A187B68110069
:10040000180001F03FFCC046BD4609B090BD90B554
:1004100089B000AF78600A00BB1C1A800C243B191D
:10042000180014231A00002108F0F3FFBB1C1A88DF
:100430003B191A603B1900225A603B1902229A604C
:100440003A197B681100180001F01CFCC046BD463B
:1004500009B090BD80B500AF294B180004F070FAC8
:10046000284B00220121180001F0A1FD80239B01EF
:1004700024480122190001F09AFD224B0022042198
:10048000180001F094FD8023DB001E4801221900B2
:1004900001F08DFD80231B011A480122190001F093
:1004A00086FD80235B0117480122190001F07FFDC2
:1004B00000F00FFD192001F0E3F800F08DFD192088
:1004C00001F0DEF800F0D8FE0F4B202202211800C8
:1004D000FFF71EFF0C4B19780B4B5A780A4B9B7891
:1004E000082000F037FE084BD978074B1A79064BE5
:1004F0005B790C2000F02EFEC046BD4680BDC04694
:10050000BC030020000400487801002080B582B0C0
:1005100000AF0A4B7B607A68094B1100180008F0A5
:1005200080FF7B681800FFF7EFFD0300DAB2054B90
:100530001A70C046BD4602B080BDC0466C9400082B
:10054000F40000207401002080B582B000AF0A4B97
:100550007B607A68094B1100180008F062FF7B6825
:100560001800FFF7D1FD0300DAB2054B1A70C04640
:10057000BD4602B080BDC04670940008F400002063
:100580007401002080B500AF80239B010448002245
:10059000190001F00CFDFFF7D7FFC046BD4680BD36
:1005A0000004004880B500AF80239B01044801226D
:1005B000190001F0FCFCFFF7C7FFC046BD4680BD37
:1005C0000004004880B500AF054B0022012118004F
:1005D00001F0EDFCFFF7B8FFC046BD4680BDC04648
:1005E0000004004880B500AF054B0122012118002E
:1005F00001F0DDFCFFF7A8FFC046BD4680BDC04648
:100600000004004880B500AF114B002204211800FF
:1006100001F0CDFC0A2001F033F88023DB000C4808
:100620000122190001F0C3FC80231B0108480122AC
:10063000190001F0BCFC80235B0105480122190070
:1006400001F0B5FCFFF780FFC046BD4680BDC04647
:100650000004004880B500AF8023DB001048002272
:10066000190001F0A4FC0A2001F00AF80C4B012249
:100670000421180001F09BFC80231B010848012283
:10068000190001F094FC80235B0105480122190048
:1006900001F08DFCFFF758FFC046BD4680BDC04647
:1006A0000004004880B500AF80231B0110480022E1
:1006B000190001F07CFC0A2000F0E2FF0C4B012243
:1006C0000421180001F073FC8023DB00084801229C
:1006D000190001F06CFC80235B0105480122190020
:1006E00001F065FCFFF730FFC046BD4680BDC04647
:1006F0000004004880B500AF80235B011048002251
:10070000190001F054FC0A2000F0BAFF0C4B012242
:100710000421180001F04BFC8023DB000848012273
:10072000190001F044FC80231B0105480122190037
:1007300001F03DFCFFF708FFC046BD4680BDC04646
:100740000004004880B582B000AF78607B681978FB
:100750007B6801331A787B6802331B78002000F035
:10076000F9FCFFF7F1FEC046BD4602B080BD80B582
:1007700082B000AF00F090FDFA235B00180000F09B
:100780007FFF3A0001323B0002333900082000F0BD
:100790002CFD390003313A0004323B0005330C20B4
:1007A00000F023FD3B00062219000220FFF740FD68
:1007B000FFF7CAFEC046BD4602B080BD80B584B01A
:1007C00000AF3B1D180000F0B0FB031E0BD0104B18
:1007D00006221A700E4B1B781A00391D0D4B18009B
:1007E00008F00EFE0FE00C4BFB60FA68094B11009D
:1007F000180008F016FEFB681800FFF785FC0300E0
:10080000DAB2034B1A70C046BD4604B080BDC04684
:1008100074010020F40000207494000880B500AF3B
:10082000094B202201211800FFF772FD074B062219
:100830001A70064B1B781A000349054B180008F084
:10084000DFFDC046BD4680BD780100207401002058
:10085000F400002080B582B000AF78607B6806228B
:1008600019000120FFF7E4FCFFF76EFEC046BD460D
:1008700002B080BD80B500AF094B202203211800D3
:10088000FFF746FD074B08221A70064B1B781A002B
:100890000349054B180008F0B3FDC046BD4680BDB6
:1008A0007801002074010020F400002080B582B09F
:1008B00000AF78607B68082219000320FFF7B8FCBE
:1008C000FFF742FEC046BD4602B080BD80B500AF16
:1008D000094B202202211800FFF71AFD074B0622C0
:1008E0001A70064B1B781A000349054B180008F0D4
:1008F00087FDC046BD4680BD780100207401002000
:10090000F400002080B582B000AF78607B680622DA
:1009100019000220FFF78CFC7B6819787B68013393
:100920001A787B6802331B78082000F013FC7B6880
:10093000033319787B6804331A787B6805331B7896
:100940000C2000F007FCFFF7FFFDC046BD4602B0DB
:1009500080BD000080B500AF924B1B78072B0BD1F8
:10096000914B1B6891490722180008F062FD031E95
:1009700002D1FFF707FE11E18A4B1B78082B0BD140
:10098000894B1B688A490822180008F052FD031E93
:1009900002D1FFF707FE01E1824B1B780E2B0BD132
:1009A000814B1B6883490E22180008F042FD031E8C
:1009B00002D1FFF707FEF1E07A4B1B780D2B0BD12C
:1009C000794B1B687C490D22180008F032FD031E8C
:1009D00002D1FFF707FEE1E0724B1B78072B0BD12A
:1009E000714B1B6875490722180008F022FD031E91
:1009F00002D1FFF707FED1E06A4B1B78072B0BD122
:100A0000694B1B686E490722180008F012FD031E8F
:100A100002D1FFF71FFEC1E0624B1B78072B0BD101
:100A2000614B1B6867490722180008F002FD031E8E
:100A300002D1FFF737FEB1E05A4B1B78072B0BD1E1
:100A4000594B1B6860490722180008F0F2FC031E8E
:100A500002D1FFF74FFEA1E0524B1B780A2B0FD1BA
:100A6000514B1B6859490722180008F0E2FC031E8D
:100A700006D14D4B1B6807331800FFF763FE8DE06E
:100A8000484B1B78062B0BD1474B1B68504906225D
:100A9000180008F0CEFC031E02D1FFF768FE7DE0CF
:100AA000404B1B78072B0BD13F4B1B684949072252
:100AB000180008F0BEFC031E02D1FFF77FFE6DE0B8
:100AC000384B1B780A2B0BD1374B1B6842490A2243
:100AD000180008F0AEFC031E02D1FFF79FFE5DE098
:100AE000304B1B78112B0FD12F4B1B683B490B222E
:100AF000180008F09EFC031E06D12B4B1B680B331D
:100B00001800FFF7A7FE49E0264B1B78092B0BD1F5
:100B1000254B1B6832490922180008F08AFC031E85
:100B200002D1FFF7D3FE39E01E4B1B78102B0FD1FB
:100B30001D4B1B682B490A22180008F07AFC031E83
:100B400006D1194B1B680A331800FFF7DBFE25E0BE
:100B5000144B1B780C2B0BD1134B1B6822490C2216
:100B6000180008F066FC031E02D1FFF783FE15E0B3
:100B70000C4B1B78152B0FD10B4B1B681B490D22FF
:100B8000180008F056FC031E06D1074B1B680D33F6
:100B90001800FFF78BFE01E0FFF7B8FCC046BD462A
:100BA00080BDC046F0000020EC0000207C940008CE
:100BB0008494000890940008A0940008B094000861
:100BC000B8940008C0940008C8940008D0940008A5
:100BD000D8940008E0940008E8940008F494000811
:100BE000009500080C950008189500082895000845
:100BF00080B500AF00F0E0FC00F030F800F0DAF86B
:100C000007F08AFE00F07EF8FFF724FC0C4B1B78FF
:100C1000012BFBD10A4B00221A700A4B1A780A4B9F
:100C20001A700A4B0A4A1A60FFF794FE094B1B78A8
:100C30009AB2094B1100180007F0FEFEE6E7C04625
:100C4000990100209A010020F0000020EC00002013
:100C5000EC06002074010020F400002090B599B04B
:100C600000AF2C243B19180034231A00002108F08F
:100C7000D0FB1C23FB18180010231A00002108F0D9
:100C8000C8FB3B0018001C231A00002108F0C1FB20
:100C90003B1920221A603B1901221A623B190022DB
:100CA0005A623B19180003F01DF8031E01D000F032
:100CB0000BF91C217B1807221A607B1803225A604B
:100CC0007B1800229A607B180022DA607B180121D1
:100CD000180003F08DFB031E01D000F0F5F83B0077
:100CE000802292021A603B0000229A613B001800A9
:100CF00003F0D6FC031E01D000F0E6F8C046BD4666
:100D000019B090BD80B586B000AF0823FB1818005D
:100D100010231A00002108F07CFB3B001800082378
:100D20001A00002108F075FB1F4B204A1A601E4B69
:100D300000225A601C4B00229A601B4B1C4ADA604E
:100D4000194B00221A61184B00225A61164B0022DF
:100D50009A61154B180003F0A3FD031E01D000F0AB
:100D6000B3F808217B18802252011A607A180E4BC2
:100D70001100180003F02EFE031E01D000F0A4F8AD
:100D80003B0000221A603B0000225A603A00064BEA
:100D90001100180004F002F8031E01D000F094F8CE
:100DA000C046BD4606B080BDBC030020002C0140FB
:100DB000FEFF000090B589B000AF0C243B1918006D
:100DC00014231A00002108F024FB3C4B5A693B4BCA
:100DD0008021C9030A435A61384B5A698023DB03D7
:100DE0001340BB60BB68354B5A69344B8021890284
:100DF0000A435A61314B5A6980239B0213407B603E
:100E00007B682E4B5A692D4B8021C9020A435A61D7
:100E10002A4B5A698023DB0213403B603B689023D6
:100E2000DB0501220321180001F0C1F89023DB0546
:100E300000223021180001F0BAF82149214B00228C
:100E4000180001F0B4F83B1933221A603B19012253
:100E50005A603B1900229A603B190022DA603A1965
:100E60009023DB051100180000F00CFF3B190C2249
:100E70001A603B1900225A603B1901229A603A1904
:100E80009023DB051100180000F0FCFE21007B1808
:100E90000B4A1A607B1801225A607B1800229A6064
:100EA0007B180022DA607B18064A1900100000F057
:100EB000E9FEC046BD4609B090BDC04600100240E4
:100EC000053C00000004004880B500AFC046BD46A8
:100ED00080BD80B500AF9023DB0501220121180001
:100EE00001F065F89023DB0501220221180001F0D2
:100EF0005EF89023DB0501211800FFF761FA9023CB
:100F0000DB0502211800FFF75BFA9023DB052021A7
:100F10001800FFF755FA9023DB0500222021180066
:100F200001F045F8C046BD4680BD80B584B000AF35
:100F300078600F23FB1800221A709023DB05002233
:100F40000221180001F033F800F07AFA9023DB0553
:100F50000421180001F00EF8031E2CD17B68DA1C66
:100F60007B681100180000F0A1F97B685A1C7B68AF
:100F700004331900100000F099F97B689A1C7B6813
:100F800005331900100000F091F90F23FB1801221E
:100F90001A709023DB0501220221180001F007F8E6
:100FA00000F04EFA9023DB0500220221180000F029
:100FB000FEFF00F045FA9023DB0501220221180014
:100FC00000F0F5FF00F03CFA0F23FB181B78180027
:100FD000BD4604B080BD000080B500AF9023DB05A6
:100FE00000220121180000F0E2FF00F029FA90230E
:100FF000DB0501222021180000F0D9FFFA231B0194
:10100000180000F027FA2D4B180000F023FA2B4BA4
:10101000180000F01FFA9023DB05002220211800A1
:1010200000F0C5FFAF239B00180000F013FA9023D7
:10103000DB0501222021180000F0B9FF204B180029
:1010400000F008FA1F4B180000F004FA1D4B1800BE
:1010500000F000FA9023DB0500222021180000F0A8
:10106000A6FFAF239B00180000F0F4F99023DB05E6
:1010700001222021180000F09AFF134B180000F005
:10108000E9F9114B180000F0E5F9104B180000F0D9
:10109000E1F99023DB0500222021180000F087FFF2
:1010A00000F0CEF99023DB0501220121180000F0A9
:1010B0007EFF00F0C5F9C046BD4680BD941100001A
:1010C0008813000010270000204E0000B80B00001D
:1010D00090B583B000AF040008001100FB1D221C76
:1010E0001A70BB1D021C1A707B1D0A1C1A709023FB
:1010F000DB0500220121180000F059FF00F0A0F9E3
:101100009023DB0510211800FFF75AF9FB1D1B780F
:101110002033DBB2180000F053F9BB1D1B78180018
:1011200000F04EF97B1D1B78180000F049F9902360
:10113000DB0510211800FFF76AF99023DB05012277
:101140000121180000F033FF00F07AF9C046BD46D7
:1011500003B090BDB0B582B000AF05000C00100028
:101160001900FB1D2A1C1A70BB1D221C1A707B1D46
:10117000021C1A703B1D0A1C1A709023DB0500220A
:101180000121180000F013FF00F05AF99023DB054D
:1011900010211800FFF714F9FB1D1B784033DBB258
:1011A000180000F00DF9BB1D1B78180000F008F9BD
:1011B0007B1D1B78180000F003F93B1D1B781800FD
:1011C00000F0FEF89023DB0510211800FFF71FF94F
:1011D0009023DB0501220121180000F0E8FE00F059
:1011E0002FF9C046BD4602B0B0BD90B585B000AF86
:1011F000B9607A603B600F243B19021C1A7090237F
:10120000DB0500220121180000F0D1FE00F018F9E2
:101210009023DB0510211800FFF7D2F83B191B784B
:10122000403BDBB2180000F0CBF89023DB05102127
:101230001800FFF7ECF800F003F900F08EF8030057
:101240001A00BB681A7000F088F803001A007B6867
:101250001A7000F082F803001A003B681A7090239D
:10126000DB0501220121180000F0A1FE00F0E8F8E2
:10127000C046BD4605B090BD80B500AFA02220217C
:101280000420FFF725FF0023002280210020FFF724
:1012900061FFC046BD4680BD80B500AFA1222021C0
:1012A0000420FFF715FFC046BD4680BD80B584B061
:1012B00000AF786039607B6800221A703B680022BA
:1012C0001A700F23FB1808221A7000F0A2F87B682E
:1012D0001B78DB18DAB27B681A703B681B78DB1866
:1012E000DAB23B681A707B681B7801229343DAB24A
:1012F0007B681A703B681B7801229343DAB23B6823
:101300001A709023DB050421180000F033FE031E41
:1013100006D07B681B7801221343DAB27B681A700F
:101320009023DB050821180000F024FE031E06D0E0
:101330003B681B7801221343DAB23B681A700F2115
:101340007B187A181278013A1A707B181B78002BD8
:10135000BBD1C046BD4604B080BD80B582B000AFF1
:10136000FB1D00221A70BB1D08221A7000F051F8F4
:10137000FA1DFB1D1B78DB181370FB1DFA1D12787C
:1013800001218A431A709023DB051021180000F018
:10139000F1FD031E05D0FB1DFA1D127801210A4341
:1013A0001A70BB1DBA1D1278013A1A70BB1D1B784A
:1013B000002BDBD1FB1D1B781800BD4602B080BDA1
:1013C00080B584B000AF0200FB1D1A700F23FB181C
:1013D00008221A70FB1D1B78DB09DAB29023DB05AB
:1013E0001021180000F0E3FD00F013F8FA1DFB1DBA
:1013F0001B78DB1813700F217B187A181278013ACA
:101400001A707B181B78002BE4D1C046BD4604B08F
:1014100080BD80B500AF9023DB050122202118009C
:1014200000F0C5FD00F00CF89023DB050022202120
:10143000180000F0BCFD00F003F8C046BD4680BDBA
:1014400080B500AFAF239B00180000F003F8C04642
:10145000BD4680BD80B582B000AF0200BB1D1A80C2
:10146000074B1B6800225A62C046054B1B685A6A2C
:10147000BB1D1B889A42F8D3C046BD4602B080BD52
:10148000BC03002080B582B000AF0F4B9A690E4BB1
:1014900001210A439A610C4B9B69012213407B6036
:1014A0007B68094BDA69084B802149050A43DA61F8
:1014B000054BDA6980235B0513403B603B68C046FF
:1014C000BD4602B080BDC0460010024080B584B069
:1014D00000AF78607B681B680A4A93420DD10A4BC3
:1014E0009A69094B802109010A439A61064B9A695E
:1014F00080231B011340FB60FB68C046BD4604B05F
:1015000080BDC046002C01400010024080B500AFF5
:10151000C046BD4680BD80B500AFFEE780B500AFD8
:10152000C046BD4680BD80B500AFC046BD4680BD4B
:1015300080B500AF00F088F8C046BD4680BD000011
:1015400080B500AF034B180000F084FEC046BD46D6
:1015500080BDC046BC10002080B500AFC046BD466F
:1015600080BD00000D4885460D480E490E4A0023F7
:1015700002E0D458C4500433C4188C42F9D30B4A47
:101580000B4C002301E013600432A242FBD3FFF7AF
:10159000E3FF07F011FFFFF72BFBFEE70040002001
:1015A00000000020D00000209C960008D000002001
:1015B000B0130020FEE7000080B500AF074B1A68AB
:1015C000064B10210A431A60002000F009F8FFF7CB
:1015D00059FF00231800BD4680BDC04600200240D0
:1015E00090B583B000AF7860144B1C68144B1B7827
:1015F0001900FA239800FEF78FFD03001900200060
:10160000FEF78AFD0300180000F02DF9031E01D03B
:1016100001230FE07B68032B0BD8796801235B4221
:101620000022180000F0FAF8064B7A681A600023CE
:1016300000E001231800BD4603B090BD000000206B
:10164000080000200400002080B500AF054B1B7887
:101650001A00054B1B68D218034B1A60C046BD46E2
:1016600080BDC046080000200404002080B500AF03
:10167000024B1B681800BD4680BDC0460404002014
:1016800080B584B000AF7860FFF7F0FF0300BB6067
:101690007B68FB60FB68013305D0094B1B781A009F
:1016A000FB689B18FB60C046FFF7E0FF0200BB68C9
:1016B000D31AFA689A42F7D8C046BD4604B080BD36
:1016C0000800002080B582B000AF0200FB1D1A7038
:1016D000FB1D1B787F2B09D8FB1D1B781A001F23CD
:1016E0001A40044B012191400A001A60C046BD46D1
:1016F00002B080BD00E100E090B583B000AF020011
:101700003960FB1D1A70FB1D1B787F2B28D82F4AD0
:10171000FB1D1B785BB29B08C0339B009B58FA1DD6
:101720001278110003220A40D200FF2191400A00E2
:10173000D2431A4011003B689B01FF221A40FB1D57
:101740001B78180003230340DB009A401F48FB1D51
:101750001B785BB29B080A43C0339B001A5031E0F0
:101760001B4AFB1D1B7819000F230B40083B9B08ED
:1017700006339B00D31804331B68FA1D127811003E
:1017800003220A40D200FF2191400A00D2431A40AE
:1017900011003B689B01FF221A40FB1D1B781800BB
:1017A00003230340DB009A400948FB1D1B781C0003
:1017B0000F232340083B9B080A4306339B00C318B2
:1017C00004331A60C046BD4603B090BD00E100E09E
:1017D00000ED00E080B582B000AF78607B68013B2F
:1017E0000C4A934201D9012310E00B4B7A68013A6D
:1017F0005A6001235B4203211800FFF77DFF064B6F
:1018000000229A60044B07221A6000231800BD468C
:1018100002B080BDFFFFFF0010E000E080B584B0A3
:1018200000AFB9607A600F217B18021C1A70BA6889
:101830007B181B785BB211001800FFF75DFFC046F4
:10184000BD4604B080BD80B582B000AF0200FB1D74
:101850001A70FB1D1B785BB21800FFF733FFC04600
:10186000BD4602B080BD80B582B000AF78607B68B5
:101870001800FFF7AFFF03001800BD4602B080BD9F
:10188000F0B587B000AFF860B9603A607B601723AD
:10189000FB1801221A701623FB1800221A70152358
:1018A000FB1800221A703E4B1B7E012B01D1022334
:1018B00072E03B4B01221A761723FE18394B1800B1
:1018C00000F0C4F8030033701723FB181B78002BBB
:1018D0005CD1FB68012B04D11523FB1801221A707F
:1018E0000BE0FB68022B04D11523FB1802221A70AF
:1018F00003E01523FB1804221A701623FB1800229C
:101900001A7039E016217B181B785A00BB68D01872
:101910007B181B781B011A00203A002A03DB796828
:10192000D1400C0008E02022D21A796891400A00C8
:101930003968D9400C0014437A68DA401500A3B224
:10194000190000F067F81723FE18164B180000F076
:101950007DF803003370144B1A69134B01218A433D
:101960001A611723FB181B78002B0ED116217B1848
:101970001A787B1801321A701623FA181523FB18EF
:1019800012781B789A42BDD300E0C046044B002277
:101990001A761723FB181B781800BD4607B0F0BD58
:1019A0000804002050C300000020024080B582B02F
:1019B00000AFFB1D00221A700C4B1B6980221340E4
:1019C0000DD00A4B0A4A5A60084B0A4A5A60074B24
:1019D0001B698022134002D0FB1D01221A70FB1DDF
:1019E0001B781800BD4602B080BDC04600200240F2
:1019F00023016745AB89EFCD80B500AF044B1A6971
:101A0000034B80210A431A6100231800BD4680BDA4
:101A10000020024080B582B000AF78600A00BB1C95
:101A20001A80084B0022DA61074B1A69064B012124
:101A30000A431A617B68BA1C12881A80C046BD46E8
:101A400002B080BD080400200020024080B584B0B0
:101A500000AF7860FFF70AFE0300FB600FE07B68D1
:101A600001330CD07B68002B07D0FFF7FFFD02008D
:101A7000FB68D31A7A689A4201D203231FE0124B03
:101A8000DB6801221340012BE9D00F4BDB682022D9
:101A90001340202B02D10C4B2022DA600A4BDB686A
:101AA00010221340102B05D0074BDB680422134093
:101AB000042B03D100F00AF8012300E000231800F2
:101AC000BD4604B080BDC0460020024080B582B053
:101AD00000AF00237B60134BDB6810221340102BF8
:101AE00009D1114BDB6902221A430F4BDA617B6883
:101AF000102213437B600B4BDB6804221340042B42
:101B000009D1094BDB6901221A43074BDA617B6873
:101B1000042213437B60034B7A68DA60C046BD46FB
:101B200002B080BD0020024008040020B0B584B09F
:101B300000AF786039600F23FB1801221A70002370
:101B4000BB60324B1B7E012B01D102235AE02F4B8D
:101B500001221A767B681B68012B16D12C4B1800CA
:101B6000FFF774FF031E47D100F056F80F23FC184F
:101B7000274B1800FFF76AFF03002370254B1A69F3
:101B8000244B04218A431A6136E0214B1800FFF7E9
:101B90005DFF031E30D13B68012252421A607B6810
:101BA0005B68BB601FE0BB68180000F04DF80F25B4
:101BB0007C19174B1800FFF749FF03002370154BE2
:101BC0001A69144B02218A431A617B191B78002B76
:101BD00003D03B68BA681A600EE0BB68802212012D
:101BE00094466344BB607B689B68DA027B685B68F1
:101BF000D318BA689A42D6D3044B00221A760F2320
:101C0000FB181B781800BD4604B0B0BD08040020C6
:101C100050C300000020024080B500AF084B0022F6
:101C2000DA61084B1A69074B04210A431A61054B14
:101C30001A69044B40210A431A61C046BD4680BD63
:101C4000080400200020024080B582B000AF786018
:101C50000A4B0022DA610A4B1A69094B02210A4336
:101C60001A61074B7A685A61054B1A69044B402187
:101C70000A431A61C046BD4602B080BD0804002078
:101C80000020024080B586B000AF78603960002344
:101C90007B6155E13B681B6801217A6991400A002C
:101CA0001340FB60FB68002B00D146E13B685B689A
:101CB00003221340012B05D03B685B6803221340CD
:101CC000022B30D17B689B683B617B695B00032200
:101CD0009A401300DA433B6913403B613B68DA6882
:101CE0007B695B009A4013003A6913433B617B6850
:101CF0003A699A607B685B683B6101227B699A4024
:101D00001300DA433B6913403B613B685B681B0986
:101D100001221A407B699A4013003A6913433B61E0
:101D20007B683A695A603B685B6803221340032B67
:101D300017D07B68DB683B617B695B0003229A40BC
:101D40001300DA433B6913403B613B689A687B6947
:101D50005B009A4013003A6913433B617B683A6920
:101D6000DA603B685B6803221340022B23D17B6956
:101D7000DA087B6808329200D3583B617B690722FE
:101D800013409B000F229A401300DA433B69134033
:101D90003B613B681A697B6907210B409B009A40B5
:101DA00013003A6913433B617B69DA087B680832A8
:101DB00092003969D1507B681B683B617B695B008D
:101DC00003229A401300DA433B6913403B613B68AE
:101DD0005B6803221A407B695B009A4013003A69F2
:101DE00013433B617B683A691A603B685A68C023B9
:101DF0009B02134000D1A0E0574B9A69564B01213A
:101E00000A439A61544B9B6901221340BB60BB6833
:101E1000524A7B699B0802339B009B583B617B695C
:101E2000032213409B000F229A401300DA433B69C0
:101E300013403B617A689023DB059A4219D07B6896
:101E4000474A934213D07B68464A93420DD07B6841
:101E5000454A934207D07B68444A934201D1042308
:101E600008E0052306E0032304E0022302E0012347
:101E700000E000237A6903210A40920093403A6906
:101E800013433B6135497B699B0802339B003A69E8
:101E90005A50374B1B683B61FB68DA433B69134080
:101EA0003B613B685A6880235B02134003D03A6968
:101EB000FB6813433B612E4B3A691A602C4B5B68FD
:101EC0003B61FB68DA433B6913403B613B685A68FE
:101ED00080239B02134003D03A69FB6813433B61A4
:101EE000234B3A695A60224B9B683B61FB68DA439B
:101EF0003B6913403B613B685A6880235B03134096
:101F000003D03A69FB6813433B61194B3A699A6005
:101F1000174BDB683B61FB68DA433B6913403B616D
:101F20003B685A6880239B03134003D03A69FB68DF
:101F300013433B610E4B3A69DA607B6901337B6185
:101F40003B681A687B69DA40131E00D0A2E6C046DF
:101F5000BD4606B080BDC0460010024000000140F2
:101F60000004004800080048000C00480010004829
:101F70000004014080B584B000AF78600A00BB1C4B
:101F80001A807B681B69BA1C1288134004D00F2387
:101F9000FB1801221A7003E00F23FB1800221A70AD
:101FA0000F23FB181B781800BD4604B080BD80B518
:101FB00082B000AF786008001100BB1C021C1A80C0
:101FC0007B1C0A1C1A707B1C1B78002B04D0BB1CCA
:101FD0001A887B689A6103E0BB1C1A887B689A6246
:101FE000C046BD4602B080BDF0B58BB006AF78608C
:101FF0007B68002B01D1012300E17B68814A9B5C57
:10200000DBB2002B08D17A68AA239B000021D154AF
:102010007B68180006F06CFE7B687A4A03219954AD
:102020007B681B68180002F02DFF0F23FB180022AD
:102030001A7058E00F203B181B7879685A1C13005F
:102040009B009B18DB00CB18013301221A703B1850
:102050001B7879685A1C13009B009B18DB003A1808
:1020600012785A543B181A7804003B181B7898B21F
:10207000796813009B009B18DB00CB183633021CD9
:102080001A803B191B7879685A1C13009B009B1817
:10209000DB00CB18033300221A703B191A787968D9
:1020A00013009B009B18DB00CB18383300221A600A
:1020B0003B191A78796813009B009B18DB00CB183A
:1020C0003C3300221A603B191A78796813009B0090
:1020D0009B18DB00CB18403300221A603B191A789A
:1020E0003B1901321A700F23FB181A787B685B6862
:1020F0009A429FD30F23FB1800221A7056E00F2438
:102100003B191A7878686A23FF33190013009B0083
:102110009B18DB00C3185B1800221A703B191A7851
:102120007868B423590013009B009B18DB00C31888
:102130005B183A1912781A703B191A7878686C2370
:10214000FF33190013009B009B18DB00C3185B18BA
:1021500000221A703B191A787868BC2359001300C2
:102160009B009B18DB00C3185B1800221A603B1908
:102170001A787868BE23590013009B009B18DB0077
:10218000C3185B1800221A603B191A787868C023BC
:10219000590013009B009B18DB00C3185B1800223A
:1021A0001A603B191A783B1901321A700F23FB1879
:1021B0001A787B685B689A42A1D37B6818687B6851
:1021C0006A4611001A00103270CA70C130CA30C19C
:1021D00059689A68DB6802F06FFE7B682422002150
:1021E00099547B68074A012199547B68DB69012B6C
:1021F00003D17B68180001F03FFD00231800BD46A5
:1022000005B0F0BDA902000080B582B000AF7860D3
:102210007A68AA239B00D35C012B01D1022314E02E
:102220007A68AA239B000121D1547B681B6818009F
:1022300002F012FE7B681B68180004F089FD7A68C2
:10224000AA239B000021D15400231800BD4602B0F0
:1022500080BD000080B582B000AF78607B681B68ED
:10226000180004F08BFD020080231B021A4080231B
:102270001B029A4203D17B68180000F0BBFB7B680D
:102280001B68180004F07AFD02008023DB001A406E
:102290008023DB009A4214D17B681B6844229B5A3E
:1022A0009AB27B681B68A2490A4091B244229952B3
:1022B0007B68180006F0A7FD7B680021180000F07D
:1022C00045F97B681B68180004F058FD0200802364
:1022D000DB011A408023DB019A420BD17B681B682B
:1022E00044229B5A9AB27B681B6892490A4091B279
:1022F000442299527B681B68180004F03FFD0200DD
:1023000080239B011A4080239B019A420BD17B685A
:102310001B6844229B5A9AB27B681B6886490A4014
:1023200091B2442299527B681B68180004F026FD84
:10233000020080235B011A4080235B019A4237D15F
:102340007B681B6840229B5A9AB27B681B680421F9
:102350008A4391B2402299527B681B6840229B5A63
:102360009AB27B681B6808218A4391B24022995235
:102370007A68B8239B00D35C012B09D17A68B82313
:102380009B000021D1547B680021180001F09EFCC5
:102390007B68180006F078FD7B681B6844229B5A16
:1023A0009AB27B681B6865490A4091B244229952EF
:1023B0007B681B68180004F0E1FC020080231B010D
:1023C0001A4080231B019A4227D17B681B68402258
:1023D0009B5A9AB27B681B6808210A4391B240223B
:1023E00099527B681B6844229B5A9AB27B681B688F
:1023F00053490A4091B2442299527B681B6840229B
:102400009B5A9AB27B681B6804210A4391B240220E
:1024100099527B68180006F01BFD7B681B6818004A
:1024200004F0ACFC020080231340802B45D17B6874
:102430001B6844229B5A9AB27B681B6880218A439E
:1024400091B2442299527A68B8239B00D35C002B46
:102450002FD17B681B6840229B5A9AB27B681B680D
:1024600004210A4391B2402299527B681B684022A2
:102470009B5A9AB27B681B6808210A4391B240229A
:1024800099527A68B8239B000121D1547B681B685C
:1024900054229B5A9BB29B083C22134019007A6835
:1024A000B9239B00D1507B680121180001F00EFC7C
:1024B00003E07B68180006F0CBFC7B681B68180003
:1024C00004F05CFC020080239B001A4080239B00E8
:1024D0009A420FD17B681B6844229B5A9AB27B6850
:1024E0001B6818490A4091B2442299527B6818002F
:1024F00006F07AFC7B681B68180004F03FFC0200C1
:1025000080235B001A4080235B009A420BD17B68DA
:102510001B6844229B5A9AB27B681B680A490A408E
:1025200091B244229952C046BD4602B080BDC04619
:10253000FFFBFFFFFFBFFFFFFFDFFFFFFFEFFFFF1F
:10254000FFF7FFFFFFFDFFFFFFFEFFFF80B582B03B
:1025500000AF78600A00FB1C1A707A68AA239B00FF
:10256000D35C012B01D1022317E07A68AA239B00D8
:102570000121D1547B68FA1C242112785A547B68BB
:102580001A68FB1C1B781900100004F0CDFB7A6858
:10259000AA239B000021D15400231800BD4602B09D
:1025A00080BD90B585B000AF78600C0010001900B8
:1025B000FB1C221C1A703B00021C1A80BB1C0A1C4C
:1025C0001A700B23FB1800221A70FB1C1B785BB2DD
:1025D000002B0FDAFB1C1B78072213405A1C130038
:1025E0009B009B18DB007A68D318FB60FB68012214
:1025F0005A700FE0FB1C1B7807221A4013009B0047
:102600009B18DB006933FF337A68D318FB60FB68E3
:1026100000225A70FB1C1B7807221340DAB2FB68B9
:102620001A703B001A88FB681A61FB68BA1C1278A2
:10263000DA70FB685B78002B04D0FB681B789AB2D9
:10264000FB68DA81BB1C1B78022B02D1FB680022DD
:102650001A717A68AA239B00D35C012B01D1022353
:1026600013E07A68AA239B000121D1547B681B6880
:10267000FA681100180002F04BFC7A68AA239B004C
:102680000021D1540B23FB181B781800BD4605B060
:1026900090BD80B584B000AF78600A00FB1C1A7052
:1026A000FB1C1B785BB2002B0FDAFB1C1B7807228C
:1026B00013405A1C13009B009B18DB007A68D31848
:1026C000FB60FB6801225A700FE0FB1C1B7807229D
:1026D0001A4013009B009B18DB006933FF337A68B4
:1026E000D318FB60FB6800225A70FB1C1B78072282
:1026F0001340DAB2FB681A707A68AA239B00D35C95
:10270000012B01D1022311E07A68AA239B00012149
:10271000D1547B681B68FA681100180002F06CFF46
:102720007A68AA239B000021D15400231800BD46DB
:1027300004B080BD80B586B000AFF8607A603B60C1
:102740000B203B180A1C1A7001007B181B7807220B
:102750001A4013009B009B18DB006933FF33FA68B3
:10276000D3187B617B697A685A617B693A689A61A0
:102770007B690022DA617B6900225A707B181B7822
:1027800007221340DAB27B691A707B181B78072284
:10279000134007D1FB681B687A691100180003F029
:1027A000EBF806E0FB681B687A691100180003F07B
:1027B000E3F800231800BD4606B080BD80B582B0A6
:1027C00000AF78600A00FB1C1A70FB1C1B78072204
:1027D0001A407868C223590013009B009B18DB0045
:1027E000C3185B181B681800BD4602B080BD80B5D9
:1027F00086B000AFF8607A603B600B203B180A1C83
:102800001A703B181B78072213405A1C13009B00B8
:102810009B18DB00FA68D3187B617B697A685A6180
:102820007B693A689A617B692422012199547B690A
:102830003A681A627B690022DA617B6901225A7068
:102840003B181B7807221340DAB27B691A703B18D9
:102850001B780722134007D1FB681B687A691100B7
:10286000180003F089F806E0FB681B687A6911001C
:10287000180003F081F800231800BD4606B080BDA3
:1028800080B584B000AF78600A00FB1C1A70FB1C96
:102890001B7807221A407B685B689A4201D90123A2
:1028A00046E0FB1C1B785BB2002B0FDAFB1C1B788D
:1028B000072213405A1C13009B009B18DB007A6808
:1028C000D318FB60FB6801225A700DE0FB1C1A78DC
:1028D00013009B009B18DB006933FF337A68D31821
:1028E000FB60FB6800225A70FB6801229A70FB1C97
:1028F0001B7807221340DAB2FB681A707A68AA23A1
:102900009B00D35C012B01D1022311E07A68AA233A
:102910009B000121D1547B681B68FA6811001800E4
:1029200004F000F97A68AA239B000021D154002307
:102930001800BD4604B080BD80B584B000AF78609B
:102940000A00FB1C1A70FB1C1B780F221A407B68C4
:102950005B689A4201D9012348E0FB1C1B785BB2FB
:10296000002B0FDAFB1C1B78072213405A1C1300A4
:102970009B009B18DB007A68D318FB60FB68012280
:102980005A700FE0FB1C1B7807221A4013009B00B3
:102990009B18DB006933FF337A68D318FB60FB6850
:1029A00000225A70FB6800229A70FB1C1B780722D9
:1029B0001340DAB2FB681A707A68AA239B00D35CD2
:1029C000012B01D1022311E07A68AA239B00012187
:1029D000D1547B681B68FA681100180004F0F2F803
:1029E0007A68AA239B000021D15400231800BD4619
:1029F00004B080BD90B597B000AF786000F0E1FB07
:102A00007B681A6856203B184421525A1A803B189A
:102A10001B88DAB255203B180F210A401A703B1868
:102A20001B78002B00D07BE15623FB181B8810225B
:102A3000134055D17B681B681B889AB20A203B184B
:102A4000AF490A401A807B681B683A181288AD4962
:102A50000A4392B21A807B6828337B647B681B68C8
:102A600050229B5A9BB21A007B6C1B78DB00D21859
:102A70007B681B68D318A44A944663441B889B0553
:102A80009A0D7B6CDA617B6C5A697B6CDB69D218BE
:102A90007B6C5A617B680021180006F087F97B681F
:102AA00024229B5CDBB2002B01D100F08AFB7B6C03
:102AB0009B69002B01D000F084FB7B6824229B5C87
:102AC000DBB2802252421343DAB27B681B6891B2B8
:102AD0004C2299527B6824220021995400F071FB0A
:102AE0007B686933FF337B647B681A6852217B18EB
:102AF00012881A807B181A8880231B01134037D054
:102B00007B681B6850229B5A9BB21A007B6C1B7817
:102B1000DB00D2187B681B68D3187C4A9446634458
:102B20001B889B059A0D7B6CDA617B6818687B6853
:102B3000AC22920099187B6CDA887B6CDB699BB2C3
:102B400004F06DF97B681B681B889AB20C203B1857
:102B50006F490A401A807B681B683A1812888021E6
:102B60000A4392B21A807B68180006F0E9F828E35D
:102B70005223FB1800229B5E002B00DB21E37B68C5
:102B80001B681B889AB21A203B1861490A401A80B8
:102B90007B681B683A18128880210A4392B21A8017
:102BA0007B681B6850229B5A9BB21A007B6C1B7877
:102BB000DB00D2187B681B68D318544A94466344E0
:102BC0001B889B059A0D7B6CDA617B6CDB69002BA3
:102BD0001AD07B6C5B69002B16D07B6818687B6C05
:102BE00059697B6CDA887B6CDB699BB204F017F95E
:102BF0007B6C5A697B6CDB69D2187B6C5A617B6891
:102C00000021180006F0B1F87B681B681B889BB296
:102C10001A0080231B01134000D0D2E27B681B689E
:102C20007B617B681B6850229B5A9BB21A007B69B0
:102C30009B187B617B69354A944663443B617B6C9E
:102C40001B69002B10D13B691B889BB2314A134092
:102C50009AB23B691A803B691B889BB2294A13438D
:102C60009AB23B691A802BE07B6C1B693E2B12D811
:102C70007B6C1B695B08BB647B6C1B690122134086
:102C800002D0BB6C0133BB64BB6C9BB29B029AB29B
:102C90003B691A8014E07B6C1B695B09BB647B6C2D
:102CA0001B691F22134002D1BB6C013BBB64BB6C90
:102CB0009BB29B029BB2134A13439AB23B691A80A0
:102CC0007B681B681B889AB20E203B1812490A4089
:102CD0001A803B183A181288802149014A401A800C
:102CE0003B183A181288802189014A401A807B6873
:102CF0001B683A18128809490A4392B21A8060E2A6
:102D00000F8FFFFF0080FFFF020400000604000099
:102D10008F0F0000FF83FFFF8FBFFFFF8080FFFF4B
:102D20007B681B681A005523FB181B789B00D21880
:102D300052217B1812881A807B1800229B5E002B80
:102D400000DBFFE07B681B681A0055203B181B78EE
:102D50009B00D3181B889AB250243B19D1490A40D2
:102D60001A807B681B681A003B181B789B00D318DD
:102D70003A19128880210A4392B21A803B181A78B5
:102D800013009B009B18DB006933FF337A68D3186C
:102D90007B647B6C1B7B002B26D17B681B685022DD
:102DA0009B5A9BB21A007B6C1B78DB00D2187B68A5
:102DB0001B68D318BC4A944663441A884E217B187A
:102DC0009205920D1A807B181B88002B00D190E091
:102DD0007B6818687B6C59697B6CDA884E23FB181A
:102DE0001B8804F01CF884E07B6CDB78022B0CD190
:102DF0004E23FC185223FB181A88796C7B68180044
:102E000000F0F2F90300238073E07B681B681A006E
:102E10007B6C1B789B00D3181B889AB242203B180E
:102E2000A2490A401A807B681B681A007B6C1B78D9
:102E30009B00D3183A1812889D490A4392B21A800F
:102E40007B681B681A007B6C1B789B00D3181B885F
:102E50009BB21A008023DB01134025D07B681B68DE
:102E600050229B5A9BB21A007B6C1B78DB00D21855
:102E70007B681B68D3188F4A944663441A884E2196
:102E80007B189205920D1A807B181B88002B30D07E
:102E90007B6818687B6C59697B6C1A894E23FB1818
:102EA0001B8803F0BCFF24E07B681B6850229B5A00
:102EB0009BB21A007B6C1B78DB00D2187B681B6806
:102EC000D318794A944663441A884E217B18920598
:102ED000920D1A807B181B88002B0AD07B6818681B
:102EE0007B6C59697B6C5A894E23FB181B8803F055
:102EF00096FF7B6CDA694E217B181B88D2187B6C9D
:102F0000DA617B6C5A697B181B88D2187B6C5A611A
:102F10007B6C9B69002B06D04E23FB181A887B6CB8
:102F20001B699A4207D27B6C1A787B6811001800E3
:102F300005F01BFF06E07B681B687A6C1100180027
:102F400002F01AFD5223FB181B888022134000D187
:102F500037E155203B181B785A1C13009B009B1827
:102F6000DB007A68D3187B647B681B681A003B1807
:102F70001B789B00D3181B889AB240243B194E49FA
:102F80000A401A807B681B681A003B181B789B005C
:102F9000D3183A19128849490A4392B21A807B6CB5
:102FA000DB78022B00D1AEE07B6C00229A615223C9
:102FB000FB181B884022134046D07B6C5B78002BAB
:102FC00025D17B681B683B627B681B6850229B5A3B
:102FD0009BB21A003B6A9B183B627B6C1B78DA0041
:102FE0003B6AD318334A94466344FB61FB691B88F0
:102FF0009BB2334A13409AB2FB691A80FB691B8863
:103000009BB22E4A13439AB2FB691A8073E07B6C21
:103010005B78012B6FD17B681B68BB627B681B6888
:1030200050229B5A9BB21A00BB6A9B18BB627B6CF6
:103030001B78DA00BB6AD3181E4A944663447B624D
:103040007B6A00221A8056E07B681B68BB637B6C3E
:103050005B78002B36D17B681B683B637B681B6801
:1030600050229B5A9BB21A003B6B9B183B637B6CB4
:103070001B78DA003B6BD3180B4A94466344FB621F
:10308000FB6A1B889BB20E4A13409AB2FB6A1A80F5
:10309000FB6A1B889BB2094A13439AB2FB6A1A80E7
:1030A00029E0C0468F0F0000060400008F8FFFFF4D
:1030B000C080FFFF020400000F8FFFFF0080FFFFB2
:1030C000FF83FFFF7B6C5B78012B14D17B681B684F
:1030D00050229B5A9BB21A00BB6B9B18BB637B6C44
:1030E0001B78DA00BB6BD3183D4A944663447B637C
:1030F0007B6B00221A807B6C1A787B6811001800A9
:1031000005F054FE5DE07B6CDB78022B51D152233D
:10311000FB181A8880235B0013404AD17B681B6828
:1031200050229B5A9BB21A007B6C1B78DB00D21892
:103130007B681B68D3182B4A944663441A883E2147
:103140007B189205920D1A807B6C9A697B181B88FC
:103150009A4208D97B6C9A693E23FB181B88D21AC5
:103160007B6C9A6102E07B6C00229A617B6C9B69AC
:10317000002B07D17B6C1A787B681100180005F0D2
:1031800015FE1EE07B6C5A693E217B181B88D21805
:103190007B6C5A617B6CDA697B181B88D2187B6C5C
:1031A000DA617B681B687A6C1100180002F0E4FB9E
:1031B00007E05223FB181A88796C7B68180000F02E
:1031C00033F97B681B6844229B5A9BB21BB2002BCD
:1031D00001DAFFF715FC00231800BD4617B090BDBB
:1031E000060400000204000080B588B000AFF8605B
:1031F000B960BB1D1A80BB1D1A888023DB011340F8
:1032000000D17FE0FB681B6850229B5A9BB21A00DA
:10321000BB681B78DB00D218FB681B68D3187C4A9C
:10322000944663441A881A217B189205920D1A80DD
:10323000BB689A697B181B889A4208D3BB689A6955
:103240001A23FB181B88D21ABB689A6102E0BB687C
:1032500000229A61BB689B69002B21D1FB681B6827
:103260001A00BB681B789B00D3181B889AB21820E1
:103270003B1868490A401A803B183A181288802186
:1032800089014A401A80FB681B681A00BB681B78DA
:103290009B00D3183A1812885F490A4392B21A80E9
:1032A000BB1D1B88402213401AD0FB681B681A0004
:1032B000BB681B789B00D3181B889AB216203B185A
:1032C00056490A401A80FB681B681A00BB681B78C5
:1032D0009B00D3183A18128851490A4392B21A80B7
:1032E0001A23FB181B88002B00D189E0FB681868A3
:1032F000BB685969BB681A891A23FB181B8803F03D
:103300008EFD7DE0FB681B6850229B5A9BB21A0021
:10331000BB681B78DB00D218FB681B68D318414AD6
:10332000944663441A881A217B189205920D1A80DC
:10333000BB689A697B181B889A4208D3BB689A6954
:103340001A23FB181B88D21ABB689A6102E0BB687B
:1033500000229A61BB689B69002B21D1FB681B6826
:103360001A00BB681B789B00D3181B889AB21E20DA
:103370003B1828490A401A803B183A1812888021C5
:1033800089014A401A80FB681B681A00BB681B78D9
:103390009B00D3183A1812881F490A4392B21A8028
:1033A000BB1D1B88402213401AD1FB681B681A0002
:1033B000BB681B789B00D3181B889AB21C203B1853
:1033C00016490A401A80FB681B681A00BB681B7804
:1033D0009B00D3183A18128811490A4392B21A80F6
:1033E0001A23FB181B88002B0AD0FB681868BB68DF
:1033F0005969BB685A891A23FB181B8803F00FFD13
:103400001A23FB181B881800BD4608B080BDC046B3
:10341000020400008FBFFFFF8080FFFF8F8FFFFF40
:10342000C080FFFF0604000080B5A2B000AFF860C6
:10343000B960BB1D1A80BB1D1B884022134000D100
:10344000C8E1FB681B6850229B5A9BB21A00BB68FC
:103450001B78DB00D218FB681B68D318D74A944648
:1034600063441A8854217B189205920D1A80BB6818
:103470009A697B181B889A4208D9BB689A695423B9
:10348000FB181B88D21ABB689A6102E0BB68002255
:103490009A61BB689B69002B00D0B5E0BB685B7884
:1034A000002B25D1FB681B68BB62FB681B685022A0
:1034B0009B5A9BB21A00BB6A9B18BB62BB681B7805
:1034C000DA00BB6AD318BD4A944663447B627B6AC8
:1034D0001B889BB2BA4A13409AB27B6A1A807B6AF5
:1034E0001B889BB2B74A13439AB27B6A1A801BE0CF
:1034F000BB685B78012B17D1FB681B683B63FB68DB
:103500001B6850229B5A9BB21A003B6B9B183B6373
:10351000BB681B78DA003B6BD318A84A9446634417
:10352000FB62FB6A00221A80FB681B683B62BB6877
:103530005B78002B25D1FB681B68BB61FB681B68AF
:1035400050229B5A9BB21A00BB699B18BB61BB6897
:103550001B78DA00BB69D3189B4A944663447B61AD
:103560007B691B889BB2964A13409AB27B691A808A
:103570007B691B889BB2934A13439AB27B691A807A
:1035800018E0BB685B78012B14D1FB681B685022E4
:103590009B5A9BB21A003B6A9B183B62BB681B7824
:1035A000DA003B6AD318884A94466344FB61FB699E
:1035B00000221A80BB681A78FB681100180005F019
:1035C000F5FBBB1D1A888023DB01134000D1D3E239
:1035D000FB681B681A00BB681B789B00D3181B880C
:1035E0009AB212203B1879490A401A80FB681B687E
:1035F0001A00BB681B789B00D3183A1812887449CC
:103600000A4392B21A80B7E2BB1D1A888023DB01FD
:1036100013401AD0FB681B681A00BB681B789B001C
:10362000D3181B889AB244203B1868490A401A8074
:10363000FB681B681A00BB681B789B00D3183A18FC
:10364000128863490A4392B21A80BB6824229B5CA9
:10365000012B00D090E2BB685A6954217B181B886B
:10366000D218BB685A61BB68DA697B181B88D2180C
:10367000BB68DA61BB681A6ABB681B699A4209D3E6
:10368000BB681B69BB66BB681A6ABB6ED21ABB6893
:103690001A6216E0BB681B6A002B08D15423FB1882
:1036A0001B88BB66BB6824220021995409E0BB68D3
:1036B000242200219954BB681B6ABB66BB680022A8
:1036C0001A62BB685B78002B50D1FB681B68BB6338
:1036D000FB681B6850229B5A9BB21A00BB6B9B185D
:1036E000BB63BB681B78DA00BB6BD318334A9446C4
:1036F00063447B63BB6E002B10D17B6B1B889BB23A
:103700002F4A13409AB27B6B1A807B6B1B889BB24B
:103710002C4A13439AB27B6B1A8044E0BB6E3E2B5B
:1037200010D8BB6E5B083B65BB6E0122134002D014
:103730003B6D01333B653B6D9BB29B029AB27B6B49
:103740001A8030E0BB6E5B093B65BB6E1F221340E5
:1037500002D13B6D013B3B653B6D9BB29B029BB233
:10376000184A13439AB27B6B1A801CE0BB685B78E3
:10377000012B18D1FB681B683B64FB681B68502257
:103780009B5A9BB21A003B6C9B183B64BB681B782E
:10379000DA003B6CD318094A94466344FB63BB6E62
:1037A0009AB2FB6B1A80FB681868BB685969BB68E2
:1037B0001A89BB6E9BB203F0EFFADDE10204000050
:1037C000FF83FFFF0080FFFF060400008F8FFFFFD5
:1037D00080C0FFFFFB681B6850229B5A9BB21A00F7
:1037E000BB681B78DB00D218FB681B68D318CA4A79
:1037F000944663441A8854217B189205920D1A80CE
:10380000BB689A697B181B889A4208D3BB689A697F
:103810005423FB181B88D21ABB689A6102E0BB686C
:1038200000229A61BB689B69002B00D0BEE0BB6898
:103830005B78002B25D1FB681B68FB67FB681B6866
:1038400050229B5A9BB21A00FB6F9B18FB67BB6808
:103850001B78DA00FB6FD318B04A94466344BB6709
:10386000BB6F1B889BB2AE4A13409AB2BB6F1A80E3
:10387000BB6F1B889BB2AB4A13439AB2BB6F1A80D3
:103880001BE0BB685B78012B17D1FB681B683B67AB
:10389000FB681B6850229B5A9BB21A003B6F9B1817
:1038A0003B67BB681B78DA003B6FD3189B4A944692
:1038B0006344FB66FB6E00221A80FB681B68802253
:1038C000BA181360BB685B78002B25D1FB681B68B6
:1038D000FB64FB681B6850229B5A9BB21A00FB6C6E
:1038E0009B18FB64BB681B78DA00FB6CD3188A4A10
:1038F00094466344BB64BB6C1B889BB2884A1340EC
:103900009AB2BB6C1A80BB6C1B889BB2854A13436E
:103910009AB2BB6C1A801FE0BB685B78012B1BD18D
:10392000FB681B6850229B5A9BB21A0080217B18AF
:103930001B689B187A181360BB681B78DA007B1829
:103940001B68D318744A944663448422B9180B60E8
:10395000BB181B6800221A80BB681A78FB6811002C
:10396000180005F023FABB1D1A888023DB011340E1
:1039700000D001E1FB681B681A00BB681B789B0044
:10398000D3181B889AB246203B1867490A401A8010
:10399000FB681B681A00BB681B789B00D3183A1899
:1039A000128862490A4392B21A80E5E0BB1D1A8868
:1039B0008023DB0113401AD1FB681B681A00BB6827
:1039C0001B789B00D3181B889AB256203B18564987
:1039D0000A401A80FB681B681A00BB681B789B00B2
:1039E000D3183A18128851490A4392B21A80BB6818
:1039F00024229B5C012B00D0BEE0BB685A69542195
:103A00007B181B88D218BB685A61BB68DA697B18BF
:103A10001B88D218BB68DA61BB681A6ABB681B696D
:103A20009A4209D3BB681B69BB66BB681A6ABB6E46
:103A3000D21ABB681A6216E0BB681B6A002B08D159
:103A40005423FB181B88BB66BB68242200219954B1
:103A500009E0BB681B6ABB66BB6800221A62BB68D0
:103A6000242200219954FB681B687B66BB685B7845
:103A7000002B5DD1FB681B68FB65FB681B6850224F
:103A80009B5A9BB21A00FB6D9B18FB65BB681B78A9
:103A9000DA00FB6DD318204A94466344BB65BB6EC5
:103AA000002B10D1BB6D1B889BB21D4A13409AB2EC
:103AB000BB6D1A80BB6D1B889BB21A4A13439AB226
:103AC000BB6D1A804EE0BB6E3E2B10D8BB6E5B0800
:103AD0007B67BB6E0122134002D07B6F01337B6793
:103AE0007B6F9BB29B029AB2BB6D1A803AE0BB6EB1
:103AF0005B097B67BB6E1F22134002D17B6F013BCA
:103B00007B677B6F9BB29B029BB2064A13439AB2C0
:103B1000BB6D1A8026E0C0460604000002040000C7
:103B2000FF83FFFF0080FFFF8F8FFFFF80C0FFFF3D
:103B3000BB685B78012B15D1FB681B6850229B5A30
:103B40009BB21A007B6E9B187B66BB681B78DA0001
:103B50007B6ED3181E4A944663443B66BB6E9AB292
:103B60003B6E1A80FB681868BB685969BB685A8944
:103B7000BB6E9BB203F010F9FB681B681A00BB68B0
:103B80001B789B00D3181B889AB210203B18114950
:103B90000A401A803B183A18128810214A401A80AD
:103BA0003B183A18128820214A401A80FB681B688B
:103BB0001A00BB681B789B00D3183A181288064974
:103BC0000A4392B21A8000231800BD4622B080BD7D
:103BD00006040000BF8FFFFF8080FFFF90B587B015
:103BE00000AFF860080011007B600A243B19021C3A
:103BF0001A800823FB180A1C1A803B191B88802294
:103C000013409BB2002B0DD00A23FB181B88072200
:103C100013405A1C13009B009B18DB00FA68D31852
:103C20007B610BE00A23FB181A8813009B009B188A
:103C3000DB006933FF33FA68D3187B610823FB1874
:103C40001B88002B07D17B6900221A737B689AB20C
:103C50007B69DA800BE07B6901221A737B689AB278
:103C60007B691A817B681B0C9AB27B695A8100239D
:103C70001800BD4607B090BD80B584B000AF786035
:103C80007B681B68FB607A68BA239B000121D150D6
:103C90007A68B8239B000021D154FB6854229B5AB8
:103CA0009BB20122134399B2FB6854229952FB68DC
:103CB00054229B5A9BB20222134399B2FB685422AE
:103CC000995200231800BD4604B080BD80B582B073
:103CD00000AF78600A00FB1C1A70C046BD4602B0F7
:103CE00080BD000080B588B000AF78607B68002B95
:103CF00002D1012300F076FB7B681B680122134090
:103D000000D18EE0C54B5B680C221340042B0ED013
:103D1000C24B5B680C221340082B17D1BF4B5A686B
:103D2000C0235B021A4080235B029A420ED1BB4B38
:103D30001A6880239B02134000D171E07B685B68A6
:103D4000002B00D06CE0012300F04CFB7B685B682B
:103D5000012B07D1B14B1A68B04B802149020A43AD
:103D60001A602FE07B685B68002B0CD1AB4B1A68A4
:103D7000AA4BAB490A401A60A84B1A68A74BA9493D
:103D80000A401A601EE07B685B68052B0ED1A34BCE
:103D90001A68A24B8021C9020A431A609F4B1A6815
:103DA0009E4B802149020A431A600BE09B4B1A6824
:103DB0009A4B9B490A401A60984B1A68974B99494D
:103DC0000A401A607B685B68002B14D0FDF74EFC3C
:103DD0000300BB6108E0FDF749FC0200BB69D31A90
:103DE000642B01D90323FDE28C4B1A6880239B02CC
:103DF0001340F0D015E0FDF739FC0300BB6108E08B
:103E0000FDF734FC0200BB69D31A642B01D90323EC
:103E1000E8E2824B1A6880239B021340F0D100E055
:103E2000C0467B681B680222134000D16CE07B4BCC
:103E30005B680C2213400ED0784B5B680C22134059
:103E4000082B1FD1754B5A68C0235B021A40802390
:103E50001B029A4216D1714B1B680222134005D0F7
:103E60007B68DB68012B01D00123BBE26B4B1B6835
:103E7000F822934319007B681B69DA00674B0A43F9
:103E80001A6041E07B68DB68002B24D0634B1A6822
:103E9000624B01210A431A60FDF7E8FB0300BB6196
:103EA00008E0FDF7E3FB0200BB69D31A022B01D93E
:103EB000032397E2594B1B6802221340F1D0574B62
:103EC0001B68F822934319007B681B69DA00534B87
:103ED0000A431A6018E0514B1A68504B01218A437B
:103EE0001A60FDF7C3FB0300BB6108E0FDF7BEFBF2
:103EF0000200BB69D31A022B01D9032372E2474B9C
:103F00001B6802221340F1D17B681B680822134012
:103F100036D07B68DB69002B19D0404B5A6A3F4B87
:103F200001210A435A62FDF7A1FB0300BB6108E0CF
:103F3000FDF79CFB0200BB69D31A022B01D90323B6
:103F400050E2364B5B6A02221340F1D018E0334B4B
:103F50005A6A324B01218A435A62FDF787FB0300FC
:103F6000BB6108E0FDF782FB0200BB69D31A022B9C
:103F700001D9032336E2294B5B6A02221340F1D1B7
:103F80007B681B680422134000D1B5E01F23FB1897
:103F900000221A70214BDA6980235B05134011D18E
:103FA0001E4BDA691D4B802149050A43DA611B4B20
:103FB000DA6980235B051340FB60FB681F23FB1855
:103FC00001221A70184B1A6880235B0013401AD123
:103FD000154B1A68144B802149000A431A60FDF7FB
:103FE00045FB0300BB6108E0FDF740FB0200BB6935
:103FF000D31A642B01D90323F4E10B4B1A688023F5
:104000005B001340F0D07B689B68012B0ED1034B03
:104010001A6A024B01210A431A6235E0001002407D
:10402000FFFFFEFFFFFFFBFF007000407B689B6807
:10403000002B0CD1CA4B1A6AC94B01218A431A6260
:10404000C74B1A6AC64B04218A431A621CE07B687C
:104050009B68052B0CD1C24B1A6AC14B04210A4341
:104060001A62BF4B1A6ABE4B01210A431A620BE067
:10407000BB4B1A6ABA4B01218A431A62B84B1A6ABF
:10408000B74B04218A431A627B689B68002B14D0CB
:10409000FDF7ECFA0300BB6109E0FDF7E7FA020067
:1040A000BB69D31AAF4A934201D903239AE1AC4BBF
:1040B0001B6A02221340F0D013E0FDF7D7FA030089
:1040C000BB6109E0FDF7D2FA0200BB69D31AA54A29
:1040D000934201D9032385E1A14B1B6A02221340BD
:1040E000F0D11F23FB181B78012B05D19C4BDA69FB
:1040F0009B4B9D490A40DA617B681B681022134084
:1041000063D07B685B69012B2AD1954B5A6B944B2A
:1041100004210A435A63924B5A6B914B01210A4383
:104120005A63FDF7A3FA0300BB6108E0FDF79EFAAE
:104130000200BB69D31A022B01D9032352E1884B39
:104140005B6B02221340F1D0854B5B6BF8229343EB
:1041500019007B689B69DA00814B0A435A6334E09B
:104160007B685B69053311D17D4B5A6B7C4B042115
:104170008A435A637A4B5B6BF822934319007B683E
:104180009B69DA00764B0A435A631EE0744B5A6B04
:10419000734B04210A435A63714B5A6B704B0121D4
:1041A0008A435A63FDF762FA0300BB6108E0FDF73A
:1041B0005DFA0200BB69D31A022B01D9032311E176
:1041C000674B5B6B02221340F1D17B681B68202296
:1041D00013405CD0624B5B680C2213400C2B0ED05A
:1041E0005F4B5B680C221340082B14D15C4B5A6860
:1041F000C0235B021A40C0235B029A420BD1584B8A
:104200005A6B80235B02134040D07B681B6A012BF2
:104210003CD00123E6E07B681B6A002B1BD0504B8F
:104220005A6B4F4B802149020A435A63FDF71EFA2D
:104230000300BB6108E0FDF719FA0200BB69D31A5D
:10424000022B01D90323CDE0454B5A6B80235B023F
:104250001340F0D01BE0424B5A6B414B43490A409C
:104260005A63FDF703FA0300BB6108E0FDF7FEF9AE
:104270000200BB69D31A022B01D90323B2E0384BE9
:104280005A6B80235B021340F0D100E0C0467B688C
:104290005B6A002B00D1A4E0314B5B680C22134019
:1042A000082B00D178E07B685B6A022B4CD12C4B49
:1042B0001A682B4B2E490A401A60FDF7D7F9030004
:1042C000BB6108E0FDF7D2F90200BB69D31A022BEB
:1042D00001D9032386E0224B1A6880239B041340F4
:1042E000F0D11F4BDB6A0F22934319007B681A6BD6
:1042F0001B4B0A43DA621A4B5B681E4A13401900D3
:104300007B68DA6A7B689B6A1A43154B0A435A60DA
:10431000134B1A68124B802149040A431A60FDF7B7
:10432000A5F90300BB6108E0FDF7A0F90200BB6935
:10433000D31A022B01D9032354E0094B1A688023B6
:104340009B041340F0D04CE0054B1A68044B08491D
:104350000A401A60FDF78AF90300BB6115E0C04608
:104360000010024088130000FFFFFFEFFFFFFEFF79
:10437000FFFFFFFEFF7FC2FFFDF778F90200BB6978
:10438000D31A022B01D903232CE0184B1A6880237F
:104390009B041340F0D124E07B685B6A012B01D1C0
:1043A00001231FE0114B5B687B61104BDB6A3B61B3
:1043B0007A69C0235B021A407B689B6A9A420ED1DD
:1043C0003B690F221A407B681B6B9A4207D17A69BE
:1043D000F0239B031A407B68DB6A9A4201D00123D9
:1043E00000E000231800BD4608B080BD0010024068
:1043F00080B584B000AF786039607B68002B01D154
:104400000123BFE0614B1B68012213403A689A42C6
:1044100011D95E4B1B680122934319005B4B3A682C
:104420000A431A60594B1B68012213403A689A42AA
:1044300001D00123A6E07B681B680222134015D03F
:104440007B681B680422134006D0514B5A68504BBE
:10445000E021C9000A435A604D4B5B68F022934348
:1044600019007B689A684A4B0A435A607B681B684C
:10447000012213404CD07B685B68012B07D1444B71
:104480001A6880239B02134020D101237AE07B68C5
:104490005B68022B07D13E4B1A6880239B041340B4
:1044A00014D101236EE07B685B68032B07D1384B86
:1044B0005A6B80235B02134008D1012362E0344B26
:1044C0001B680222134001D101235BE0304B5B6883
:1044D0000322934319007B685A682D4B0A435A60A4
:1044E000FDF7C4F80300FB6009E0FDF7BFF8020028
:1044F000FB68D31A274A934201D9032342E0244B95
:104500005B680C221A407B685B689B009A42ECD186
:104510001E4B1B68012213403A689A4211D21B4B72
:104520001B68012293431900184B3A680A431A602A
:10453000164B1B68012213403A689A4201D00123AE
:1045400020E07B681B680422134009D0104B5B6895
:10455000114A134019007B68DA680D4B0A435A6010
:1045600000F020F801000A4B5B681B090F22134082
:104570000A4AD35C0A00DA40094B1A600020FDF7B2
:104580002FF800231800BD4604B080BD0020024073
:104590000010024088130000FFF8FFFF9495000808
:1045A0000000002090B58FB000AF1423FB18374AED
:1045B00013CA13C312681A603B1D354A13CA13C3CA
:1045C00012681A600023FB620023BB6200237B6336
:1045D00000237B6200233B632E4B5B68FB62FB6A1C
:1045E0000C221340082B06D00C2B43D0042B44D1B3
:1045F000294B3B6344E0FB6A9B0C0F2213401422BF
:10460000BA18D35C7B62234BDB6A0F2213403A1D3E
:10461000D35CBB62FA6AC0235B021A4080235B0250
:104620009A4209D1B96A1C48FBF776FD03001A00CB
:104630007B6A53437B631AE0FA6AC0235B021A4029
:10464000C0235B029A4209D1B96A1448FBF764FDA2
:1046500003001A007B6A53437B6308E0B96A0E4883
:10466000FBF75AFD03001A007B6A53437B637B6BA5
:104670003B6305E0094B3B6302E0074B3B63C046ED
:104680003B6B1800BD460FB090BDC0463895000882
:10469000489500080010024000127A00006CDC020D
:1046A00080B586B000AF786000233B610023FB60DB
:1046B0007B681A6880235B02134000D18FE01723C8
:1046C000FB1800221A706F4BDA6980235B051340D8
:1046D00011D16C4BDA696B4B802149050A43DA61D1
:1046E000684BDA6980235B051340BB60BB68172306
:1046F000FB1801221A70644B1A6880235B00134078
:104700001AD1614B1A68604B802149000A431A6034
:10471000FCF7ACFF03003B6108E0FCF7A7FF0200D9
:104720003B69D31A642B01D90323A6E0564B1A68C0
:1047300080235B001340F0D0524B1A6AC0239B00C9
:104740001340FB60FB68002B34D07B685A68C023A1
:104750009B001340FA689A422CD04A4B1B6A4B4A82
:104760001340FB60474B1A6A464B802149020A43BB
:104770001A62444B1A6A434B45490A401A62414B3C
:10478000FA681A62FB680122134013D0FCF76EFF2F
:1047900003003B6109E0FCF769FF02003B69D31AA3
:1047A0003C4A934201D9032367E0364B1B6A02223D
:1047B0001340F0D0334B1B6A344A134019007B6816
:1047C0005A68304B0A431A621723FB181B78012BD7
:1047D00005D12C4BDA692B4B2F490A40DA617B68F3
:1047E0001B680122134009D0264B1B6B0322934305
:1047F00019007B689A68234B0A431A637B681B681D
:104800000222134009D01F4B1B6B244A134019008E
:104810007B68DA681B4B0A431A637B681B6820229B
:10482000134009D0174B1B6B1022934319007B6870
:104830001A69144B0A431A637B681A6880239B0227
:10484000134009D00F4B1B6B8022934319007B68E8
:104850009A690C4B0A431A637B681A688023DB0051
:10486000134009D0074B1B6B4022934319007B6810
:104870005A69044B0A431A6300231800BD4606B068
:1048800080BDC0460010024000700040FFFCFFFFEA
:10489000FFFFFEFF88130000FFFFFFEFFFFFFCFF9D
:1048A00080B582B000AF78607B68002B01D1012316
:1048B00042E07B683D229B5CDBB2002B07D17B682A
:1048C0003C22002199547B681800FCF7FFFD7B68AF
:1048D0003D22022199547B681A687B6804331900D1
:1048E000100000F041F97B684622012199547B6851
:1048F0003E22012199547B683F22012199547B6813
:104900004022012199547B684122012199547B68FE
:104910004222012199547B684322012199547B68EA
:104920004422012199547B684522012199547B68D6
:104930003D220121995400231800BD4602B080BDDC
:1049400080B584B000AF78607B683D229B5CDBB2B1
:10495000012B01D0012333E07B683D2202219954D1
:104960007B681B68184A93420FD07B681A688023C3
:10497000DB059A4209D07B681B68144A934204D035
:104980007B681B68124A934211D17B681B689B6845
:1049900007221340FB60FB68062B10D07B681B6866
:1049A0001A687B681B6801210A431A6007E07B686C
:1049B0001B681A687B681B6801210A431A60002380
:1049C0001800BD4604B080BD002C0140000400402A
:1049D0000040014080B584B000AF786039600F239B
:1049E000FB1800221A707B683C229B5C012B01D1D2
:1049F0000223B2E07B683C22012199547B683D226E
:104A0000022199547B681B689B68BB60BB68772256
:104A10009343BB60BB68534A1340BB607B681B6811
:104A2000BA689A603B681B68402B00D16BE00ED8D7
:104A3000102B00D177E003D8002B00D173E07BE08E
:104A4000202B00D16FE0302B00D16CE074E0702B94
:104A50000ED004D8502B36D0602B44D06CE080228E
:104A6000520193426DD080229201934217D063E0AD
:104A70007B6818683B6899683B685A683B68DB68E4
:104A800000F06CF97B681B689B68BB60BB68772291
:104A90001343BB607B681B68BA689A6052E07B680E
:104AA00018683B6899683B685A683B68DB6800F0A7
:104AB00055F97B681B689A687B681B688021C9016F
:104AC0000A439A603EE07B6818683B6859683B6817
:104AD000DB681A0000F0C8F87B681B6850211800DA
:104AE00000F022F92EE07B6818683B6859683B6843
:104AF000DB681A0000F0E6F87B681B68602118008C
:104B000000F012F91EE07B6818683B6859683B6842
:104B1000DB681A0000F0A8F87B681B6840211800C9
:104B200000F002F90EE07B681A683B681B68190008
:104B3000100000F0F9F805E00F23FB1801221A70AD
:104B400000E0C0467B683D22012199547B683C22ED
:104B5000002199540F23FB181B781800BD4604B0A0
:104B600080BDC046FF00FFFF80B584B000AF786015
:104B700039607B681B68FB607B68344A934208D0CD
:104B80007A688023DB059A4203D07B68304A9342DF
:104B900008D1FB6870229343FB603B685B68FA684E
:104BA0001343FB607B68294A934218D07A688023BC
:104BB000DB059A4213D07B68254A93420FD07B686D
:104BC000244A93420BD07B68234A934207D07B68E8
:104BD000224A934203D07B68214A934208D1FB6862
:104BE000204A1340FB603B68DB68FA681343FB60B4
:104BF000FB68802293431A003B685B691343FB60A8
:104C00007B68FA681A603B689A687B68DA623B687E
:104C10001A687B689A627B680C4A93420BD07B6867
:104C20000D4A934207D07B680C4A934203D07B68BD
:104C30000B4A934203D13B681A697B681A637B680D
:104C400001225A61C046BD4604B080BD002C01401F
:104C500000040040002000400040014000440140AA
:104C600000480140FFFCFFFF80B586B000AFF86050
:104C7000B9607A60FB681B6A7B61FB681B6A012272
:104C800093431A00FB681A62FB689B693B613B69AE
:104C9000F02293433B617B681B013A6913433B61FC
:104CA0007B690A2293437B617A69BB6813437B610A
:104CB000FB683A699A61FB687A691A62C046BD4628
:104CC00006B080BD80B586B000AFF860B9607A608C
:104CD000FB681B6A102293431A00FB681A62FB6888
:104CE0009B697B61FB681B6A3B617B690D4A1340D2
:104CF0007B617B681B037A6913437B613B69A0225C
:104D000093433B61BB681B013A6913433B61FB68FA
:104D10007A699A61FB683A691A62C046BD4606B074
:104D200080BDC046FF0FFFFF80B584B000AF786044
:104D300039607B689B68FB60FB6870229343FB6073
:104D40003A68FB68134307221343FB607B68FA68E9
:104D50009A60C046BD4604B080BD000080B586B0F4
:104D600000AFF860B9607A603B60FB689B687B616C
:104D70007B69094A13407B613B681A027B681A43CE
:104D8000BB6813437A6913437B61FB687A699A6055
:104D9000C046BD4606B080BDFF00FFFF80B584B0B1
:104DA00000AF786039607B683C229B5C012B01D1AD
:104DB000022347E07B683C22012199547B683D2215
:104DC000022199547B681B685B68FB607B681B68E9
:104DD0009B68BB60FB6870229343FB603B681B6869
:104DE000FA681343FB607B681B68FA685A607B684B
:104DF0001B68164A93420FD07B681A688023DB0534
:104E00009A4209D07B681B68114A934204D07B68A0
:104E10001B68104A93420CD1BB6880229343BB604D
:104E20003B685B68BA681343BB607B681B68BA6801
:104E30009A607B683D22012199547B683C220021C5
:104E4000995400231800BD4604B080BD002C0140D9
:104E5000000400400040014080B584B000AF78609D
:104E60007B68442200219952054BFB60FB6899B294
:104E70007B684022995200231800BD4604B080BDD3
:104E800080BF000080B584B000AF7860094BFB6044
:104E90007B6840229B5A9BB2FA6892B2D24392B28C
:104EA000134099B27B684022995200231800BD46F6
:104EB00004B080BD80BF000084B090B5C64600B588
:104EC00082B000AF786004201024A4460824A046D5
:104ED000B844C44460440160426083607B684022FF
:104EE000012199527B684022002199527B6844221B
:104EF000002199527B68502200219952002318000A
:104F0000BD4602B004BC904690BC08BC04B0184733
:104F100080B59CB000AF786039606F23FB18002229
:104F20001A707A683B681B789B00D3181B889AB26A
:104F30006C23FB18CF490A401A803B68DB78012BB1
:104F400020D002DC002B05D025E0022B0BD0032B58
:104F50000FD020E06C22BB18BA181288802189007B
:104F60000A431A801CE06C22BB18BA1812881A80F7
:104F700016E06C22BB18BA181288C021C9000A4377
:104F80001A800DE06C22BB18BA1812888021C90063
:104F90000A431A8004E06F23FB1801221A70C046EE
:104FA0007A683B681B789B00D3186C22BA18128869
:104FB000B1490A4392B21A807A683B681B789B0019
:104FC000D3181B889BB21BB2AC4A13401AB23B6881
:104FD0001B781BB213431AB266217B181A807A68B9
:104FE0003B681B789B00D3187A181288A2490A43A1
:104FF00092B21A803B681B7B002B00D050E13B68CB
:105000005B78002B00D17AE07B68BB617B68502223
:105010009B5A9BB21A00BB699B18BB613B681B780B
:10502000DA00BB69D3188022D200944663447B61C6
:105030003B68DB885B089BB2DB189AB27B691A80FD
:105040007A683B681B789B00D21812217B18128863
:105050001A807B181B884022134016D07A683B6860
:105060001B789B00D3181B889AB210203B188349E9
:105070000A401A807A683B681B789B00D3183A185C
:1050800012887F490A4392B21A803B68DB78012B71
:105090001DD07A683B681B789B00D3181B889AB296
:1050A0000C203B1877490A401A803B183A1812889E
:1050B00020214A401A807A683B681B789B00D318ED
:1050C0003A1812886C490A4392B21A807AE27A68D6
:1050D0003B681B789B00D3181B889AB20E203B18A4
:1050E00068490A401A807A683B681B789B00D3188D
:1050F0003A18128860490A4392B21A8062E27B68C9
:105100003B637B6850229B5A9BB21A003B6B9B18F7
:105110003B633B681B78DA003B6BD3185A4A9446D2
:105120006344FB623B68DB885B089BB2DB189AB286
:10513000FB6A1A807B68BB627B6850229B5A9BB2D9
:105140001A00BB6A9B18BB623B681B78DA00BB6A1B
:10515000D3184E4A944663447B623B681B69002B1C
:1051600010D17B6A1B889BB2494A13409AB27B6A72
:105170001A807B6A1B889BB2464A13439AB27B6AA9
:105180001A802BE03B681B693E2B12D83B681B69D9
:105190005B08BB663B681B690122134002D0BB6EF3
:1051A0000133BB66BB6E9BB29B029AB27B6A1A80CC
:1051B00014E03B681B695B09BB663B681B691F22E7
:1051C000134002D1BB6E013BBB66BB6E9BB29B0220
:1051D0009BB2304A13439AB27B6A1A807A683B6862
:1051E0001B789B00D21822217B1812881A807B180A
:1051F0001A888023DB01134016D07A683B681B783D
:105200009B00D3181B889AB220203B181B490A40E8
:105210001A807A683B681B789B00D3183A1812886A
:105220001D490A4392B21A807A683B681B789B003A
:10523000D3181B889AB21E203B1818490A401A80BE
:105240003B183A181288802149014A401A803B18BD
:105250003A181288802189014A401A807A683B688E
:105260001B789B00D3183A18128803490A4392B25C
:105270001A80A7E18F89FFFF8080FFFF8F8FFFFFDC
:10528000C080FFFFBF8FFFFF040400000604000082
:10529000FF83FFFF0080FFFF80C0FFFF8FBFFFFF86
:1052A0003B68DB78022B17D17A683B681B789B0040
:1052B000D3181B889AB262203B18C6490A401A804C
:1052C0007A683B681B789B00D3183A181288C24949
:1052D0000A4392B21A8016E07A683B681B789B00FA
:1052E000D3181B889AB264203B18BC490A401A8024
:1052F0007A683B681B789B00D3183A181288B84923
:105300000A4392B21A807B68FB657B6850229B5AE5
:105310009BB21A00FB6D9B18FB653B681B78DA009B
:10532000FB6DD3188022D20094466344BB653B6872
:105330001B895B089BB2DB189AB2BB6D1A807B6835
:105340007B657B6850229B5A9BB21A007B6D9B1831
:105350007B653B681B78DA007B6DD318A14A9446C5
:1053600063443B653B685B895B089BB2DB189AB280
:105370003B6D1A803B685B78002B00D087E07A6831
:105380003B681B789B00D21840217B1812881A803A
:105390007B181A888023DB01134016D07A683B689B
:1053A0001B789B00D3181B889AB23E203B18894972
:1053B0000A401A807A683B681B789B00D3183A1819
:1053C000128889490A4392B21A807A683B681B782E
:1053D0009B00D2183C217B1812881A807B181B88EE
:1053E0004022134016D07A683B681B789B00D31884
:1053F0001B889AB23A203B1876490A401A807A688C
:105400003B681B789B00D3183A18128877490A43E7
:1054100092B21A807A683B681B789B00D3181B886D
:105420009AB238203B1872490A401A803B183A1841
:105430001288802149014A401A803B183A18128884
:10544000802189014A401A807A683B681B789B005A
:10545000D3183A18128862490A4392B21A807A68BD
:105460003B681B789B00D3181B889AB236203B18E8
:1054700060490A401A807A683B681B789B00D31801
:105480003A18128856490A4392B21A809AE07A680A
:105490003B681B789B00D2184E217B1812881A801B
:1054A0007B181A888023DB01134016D07A683B688A
:1054B0001B789B00D3181B889AB24C203B18454997
:1054C0000A401A807A683B681B789B00D3183A1808
:1054D000128845490A4392B21A807A683B681B7861
:1054E0009B00D2184A217B1812881A807B181B88CF
:1054F0004022134016D07A683B681B789B00D31873
:105500001B889AB248203B1832490A401A807A68B0
:105510003B681B789B00D3183A18128833490A431A
:1055200092B21A803B68DB78012B1DD07A683B6809
:105530001B789B00D3181B889AB244203B182D4936
:105540000A401A803B183A18128820214A401A80D3
:105550007A683B681B789B00D3183A181288204958
:105560000A4392B21A8016E07A683B681B789B0067
:10557000D3181B889AB246203B181E490A401A804D
:105580007A683B681B789B00D3183A181288144934
:105590000A4392B21A807A683B681B789B00D31842
:1055A0001B889AB242203B1811490A401A807A6837
:1055B0003B681B789B00D3183A18128808490A43A5
:1055C00092B21A806F23FB181B781800BD461CB0DE
:1055D00080BDC0468F8FFFFF8081FFFF8F8EFFFF52
:1055E0008080FFFF0404000080C0FFFFC080FFFF39
:1055F0008FBFFFFFBF8FFFFF80B58CB000AF78601B
:1056000039603B681B7B002B00D07EE03B685B78F9
:10561000002B3CD07A683B681B789B00D2180C2189
:105620007B1812881A807B181B884022134016D0E2
:105630007A683B681B789B00D3181B889AB20A20B3
:105640003B18C7490A401A807A683B681B789B0060
:10565000D3183A181288C3490A4392B21A807A685A
:105660003B681B789B00D3181B889AB208203B1814
:10567000BD490A401A807A683B681B789B00D318A2
:105680003A181288B9490A4392B21A8063E17A68DB
:105690003B681B789B00D21812217B1812881A8055
:1056A0007B181A888023DB01134016D07A683B6888
:1056B0001B789B00D3181B889AB210203B18A8496E
:1056C0000A401A807A683B681B789B00D3183A1806
:1056D0001288A7490A4392B21A807A683B681B78FD
:1056E0009B00D3181B889AB20E203B18A1490A4090
:1056F0001A807A683B681B789B00D3183A18128886
:105700009A490A4392B21A8025E13B685B78002BE4
:1057100000D090E07A683B681B789B00D21820216B
:105720007B1812881A807B181A888023DB011340AB
:1057300016D07A683B681B789B00D3181B889AB2F6
:105740001E203B1886490A401A807A683B681B78FD
:105750009B00D3183A18128885490A4392B21A80DE
:105760007A683B681B789B00D2181C217B18128832
:105770001A807B181B884022134016D07A683B6839
:105780001B789B00D3181B889AB21A203B187449C7
:105790000A401A807A683B681B789B00D3183A1835
:1057A000128870490A4392B21A807A683B681B7863
:1057B0009B00D3181B889AB218203B1868490A40EE
:1057C0001A807A683B681B789B00D3183A181288B5
:1057D00064490A4392B21A807A683B681B789B003E
:1057E000D3181B889AB216203B1862490A401A80C7
:1057F0007A683B681B789B00D3183A1812885B497B
:105800000A4392B21A807A683B681B789B00D318CF
:105810001B889AB214203B1853490A401A807A68B0
:105820003B681B789B00D3183A1812884F490A43EB
:1058300092B21A808FE07A683B681B789B00D2187E
:105840002E217B1812881A807B181A888023DB018E
:10585000134016D07A683B681B789B00D3181B88CE
:105860009AB22C203B183E490A401A807A683B685D
:105870001B789B00D3183A1812883D490A4392B20C
:105880001A807A683B681B789B00D2182A217B1803
:1058900012881A807B181B884022134016D07A6821
:1058A0003B681B789B00D3181B889AB228203B18B2
:1058B0002B490A401A807A683B681B789B00D318F2
:1058C0003A18128827490A4392B21A807A683B68CC
:1058D0001B789B00D3181B889AB226203B182049BE
:1058E0000A401A807A683B681B789B00D3183A18E4
:1058F00012881F490A4392B21A807A683B681B7863
:105900009B00D3181B889AB224203B1816490A40E2
:105910001A807A683B681B789B00D3183A18128863
:1059200012490A4392B21A807A683B681B789B003E
:10593000D3181B889AB222203B180E490A401A80BD
:105940007A683B681B789B00D3183A18128807497D
:105950000A4392B21A8000231800BD460CB080BDE5
:105960008F8FFFFFC080FFFFBF8FFFFF8080FFFF93
:1059700080C0FFFF8FBFFFFF90B5C3B000AF78605E
:1059800039603B685B78012B01D000F0F9FC3B6883
:105990009A693B681B699A4205D93B681B697A1D65
:1059A000FF32136004E03B689B697A1DFF3213608D
:1059B0003B681B7B002B25D13B6859693B68DA8823
:1059C0007B1DFF331B689BB2786801F0E5F97B68AB
:1059D0003B617B6850229B5A9BB21A003B699B1823
:1059E0003B613B681B78DA003B69D318CD4A94468B
:1059F0006344FB607B1DFF331B689AB2FB681A800F
:105A000000F099FC3B68DB78022B00D040E33B6858
:105A10001A6A3B681B699A4200D8E5E27A683B68DB
:105A20001B789B00D3181B889AB256203B18BE499E
:105A30000A401A807A683B681B789B00D3183A1892
:105A40001288BA490A4392B21A803B681A6A7B1DCF
:105A5000FF331B68D21A3B681A627A683B681B786E
:105A60009B00D3181B889BB21A004023134000D11F
:105A700064E17B683B633B685B78002B6AD17B68A1
:105A8000BB627B6850229B5A9BB21A00BB6A9B1870
:105A9000BB623B681B78DA00BB6AD318A44A944601
:105AA00063447B627B1DFF331B68002B10D17B6A34
:105AB0001B889BB29F4A13409AB27B6A1A807B6A0A
:105AC0001B889BB29C4A13439AB27B6A1A805CE0A3
:105AD0007B1DFF331B683E2B1CD87B1DFF331B68CF
